:0C0A06000A143F065B4F666D7D077F6F92
:10093D00EFB40800504A90094AF82828730209625A
:10094D0002096602096D02097102097802097C0229
:10095D000983020987C2A28002D2A2C2A3C2A42225
:10096D00C2A28002D2A2D2A3C2A422C2A28002D26B
:10097D00A2C2A3D2A422C2A28002D2A2D2A3D2A486
:01098D002247
:0E09F800EF1FAC0670011E4C60030080F3225E
:1009D800E4FDFCC3ED9FEC9E5015E4FBFA0BBB0055
:0F09E800010AEB647B4A70F50DBD00010C80E441
:0109F70022DD
:10098E008D11AE07A9037F0212093D74142EF8E6ED
:10099E00F5807E001209D81F12093D74142511F836
:1009AE00E6F5800F1209D87F0512093D7414251340
:1009BE00F8E6F5807F021209D87F0612093D7414FD
:0A09CE0029F8E6F5807F020209D83F
:10080000E4F508F509D2A7C2A5D2A1C2A17F127E44
:10081000001209D8D2A17F1E1209F820A1FD30A133
:10082000FD20A1FDE4FD740B2DF8E4F6F50A30A1DE
:10083000FD7F1E7E001209F8740B2DF8C000E6251E
:10084000E0D000F630A108740B2DF8E64401F62044
:10085000A1FD050AE50AC3940840D30DBD05C7E50F
:100860000B250CFFE433FE7C00EF250DFFEC3EFE74
:10087000EF250EFFEC3EFEEFB50F0CECB50608853C
:100880000B08850D098005E4F508F509E50975F003
:100890000A84FFE50975F00A84ADF0E50875F00AF1
:1008A00084FBE50875F00A8485F01312098E0208AE
:0108B0000B3C
:030000000208B142
:0C08B100787FE4F6D8FD75811D0208F880
:1008BD00020800E493A3F8E493A34003F68001F249
:1008CD0008DFF48029E493A3F85407240CC8C3333C
:1008DD00C4540F4420C8834004F456800146F6DF0B
:1008ED00E4800B0102040810204080900A06E47E8B
:1008FD00019360BCA3FF543F30E509541FFEE49300
:10090D00A360010ECF54C025E060A840B8E493A3C6
:10091D00FAE493A3F8E493A3C8C582C8CAC583CAF1
:10092D00F0A3C8C582C8CAC583CADFE9DEE780BEA9
:010A120000E3
:00000001FF
