:03000000020050AB
:03000B000200FAF6
:1000500075890175A88275A00074327E017F327C9B
:10006000EE7D0011EE74327E027F327CF77D00114E
:10007000EE74327E037F327CFA7D0011EE74327EA4
:10008000047F327CFB7D8011EE74327E057F327CF2
:10009000FC7D6611EE74327E067F327CFD7D0011A0
:1000A000EE74327E077F327CFD7D6E11EE74327EFF
:1000B000087F327CFD7DC011EE74327E097F327C78
:1000C000FE7D0011EE74327E0A7F327CFE7D33119C
:1000D000EE74327E0B7F327CFE7D5D11EE74327EDB
:1000E0000C7F327CFE7D8011EE75A80080FEC20080
:1000F0008C8C8D8AD28C3000FD22B2A58C8C8D8A9E
:08010000DF05DE02D200FF3230
:00000001FF
