:03000000020030CB
:1000300075816075320812010B12011C12017912D0
:1000400001A89001D51201BC1201B29001E3120186
:10005000BC7530007531001200B1402B1201AD7437
:1000600020120174E5311201C674DF120174744369
:100070001201741201B77420120174E5301201C626
:10008000742512017480241201AD7420120174745D
:100090004512017474521201741201B774201201D6
:1000A0007474451201747452120174120103020037
:1000B00051C2A01200FAD2A07FFA30A004DFFBD315
:1000C000227FFA20A004DFFBD3227FFA30A004DFD6
:1000D000FBD3221200E8F5301200E81200E8F531F7
:1000E0001200E81200E8C3227D0830A0FD7F14DF73
:1000F000FEA2A03320A0FDDDF1227E327FFADFFEDA
:10010000DEFA227B501200FADBFB227B041200FA9B
:10011000DBFB227E0A7FFADFFEDEFA22D2A1D2A228
:1001200022D2A1D2A200C2A100C2A222C2A1D2A206
:1001300000D2A1227F083392A1D2A200C2A2DFF690
:10014000D2A1D2A200C2A2223121744E3134EE31AA
:1001500034312C22FA54F0FBE5324D44044BFE318D
:0701600048EE54FBFE31489C
:10016700EA223154C43154227D003169227D0131A4
:1001770069221200FA74307D003154120113743071
:1001870031541201137430315474203154742831AE
:100197006F740C316F7406316F7401316F1200FA8E
:1001A700227480316F2274C0316F227494316F22B0
:1001B70074D4316F22E49360053174A380F72275FC
:1001C700F00A8424303174E5F02430317422546508
:1001D7006D70657261747572653A200048756D6956
:0701E700646974793A2000FD
:00000001FF
